{
  "_format": "hh-sol-artifact-1",
  "contractName": "VanillaOption",
  "sourceName": "contracts/VanillaOption.sol",
  "abi": [
    {
      "inputs": [
        {
          "internalType": "string",
          "name": "_name",
          "type": "string"
        },
        {
          "internalType": "string",
          "name": "_symbol",
          "type": "string"
        },
        {
          "internalType": "contract ERC20",
          "name": "_depositAsset",
          "type": "address"
        },
        {
          "internalType": "contract Oracle",
          "name": "_underlyingAssetOracle",
          "type": "address"
        },
        {
          "internalType": "uint256",
          "name": "_tradeTenorInDays",
          "type": "uint256"
        },
        {
          "internalType": "address[]",
          "name": "_whitelistedMarketMakers",
          "type": "address[]"
        }
      ],
      "stateMutability": "nonpayable",
      "type": "constructor"
    },
    {
      "anonymous": false,
      "inputs": [
        {
          "indexed": true,
          "internalType": "address",
          "name": "owner",
          "type": "address"
        },
        {
          "indexed": true,
          "internalType": "address",
          "name": "spender",
          "type": "address"
        },
        {
          "indexed": false,
          "internalType": "uint256",
          "name": "value",
          "type": "uint256"
        }
      ],
      "name": "Approval",
      "type": "event"
    },
    {
      "anonymous": false,
      "inputs": [
        {
          "indexed": true,
          "internalType": "address",
          "name": "sender",
          "type": "address"
        },
        {
          "indexed": true,
          "internalType": "address",
          "name": "owner",
          "type": "address"
        },
        {
          "indexed": false,
          "internalType": "uint256",
          "name": "assets",
          "type": "uint256"
        },
        {
          "indexed": false,
          "internalType": "uint256",
          "name": "shares",
          "type": "uint256"
        }
      ],
      "name": "Deposit",
      "type": "event"
    },
    {
      "anonymous": false,
      "inputs": [
        {
          "indexed": true,
          "internalType": "address",
          "name": "from",
          "type": "address"
        },
        {
          "indexed": true,
          "internalType": "address",
          "name": "to",
          "type": "address"
        },
        {
          "indexed": false,
          "internalType": "uint256",
          "name": "value",
          "type": "uint256"
        }
      ],
      "name": "Transfer",
      "type": "event"
    },
    {
      "anonymous": false,
      "inputs": [
        {
          "indexed": true,
          "internalType": "address",
          "name": "sender",
          "type": "address"
        },
        {
          "indexed": true,
          "internalType": "address",
          "name": "receiver",
          "type": "address"
        },
        {
          "indexed": true,
          "internalType": "address",
          "name": "owner",
          "type": "address"
        },
        {
          "indexed": false,
          "internalType": "uint256",
          "name": "assets",
          "type": "uint256"
        },
        {
          "indexed": false,
          "internalType": "uint256",
          "name": "shares",
          "type": "uint256"
        }
      ],
      "name": "Withdraw",
      "type": "event"
    },
    {
      "inputs": [
        {
          "internalType": "address",
          "name": "owner",
          "type": "address"
        },
        {
          "internalType": "address",
          "name": "spender",
          "type": "address"
        }
      ],
      "name": "allowance",
      "outputs": [
        {
          "internalType": "uint256",
          "name": "",
          "type": "uint256"
        }
      ],
      "stateMutability": "view",
      "type": "function"
    },
    {
      "inputs": [
        {
          "internalType": "address",
          "name": "spender",
          "type": "address"
        },
        {
          "internalType": "uint256",
          "name": "amount",
          "type": "uint256"
        }
      ],
      "name": "approve",
      "outputs": [
        {
          "internalType": "bool",
          "name": "",
          "type": "bool"
        }
      ],
      "stateMutability": "nonpayable",
      "type": "function"
    },
    {
      "inputs": [],
      "name": "asset",
      "outputs": [
        {
          "internalType": "address",
          "name": "",
          "type": "address"
        }
      ],
      "stateMutability": "view",
      "type": "function"
    },
    {
      "inputs": [
        {
          "internalType": "address",
          "name": "account",
          "type": "address"
        }
      ],
      "name": "balanceOf",
      "outputs": [
        {
          "internalType": "uint256",
          "name": "",
          "type": "uint256"
        }
      ],
      "stateMutability": "view",
      "type": "function"
    },
    {
      "inputs": [
        {
          "internalType": "uint256",
          "name": "shares",
          "type": "uint256"
        }
      ],
      "name": "convertToAssets",
      "outputs": [
        {
          "internalType": "uint256",
          "name": "",
          "type": "uint256"
        }
      ],
      "stateMutability": "view",
      "type": "function"
    },
    {
      "inputs": [
        {
          "internalType": "uint256",
          "name": "assets",
          "type": "uint256"
        }
      ],
      "name": "convertToShares",
      "outputs": [
        {
          "internalType": "uint256",
          "name": "",
          "type": "uint256"
        }
      ],
      "stateMutability": "view",
      "type": "function"
    },
    {
      "inputs": [],
      "name": "decimals",
      "outputs": [
        {
          "internalType": "uint8",
          "name": "",
          "type": "uint8"
        }
      ],
      "stateMutability": "view",
      "type": "function"
    },
    {
      "inputs": [
        {
          "internalType": "address",
          "name": "spender",
          "type": "address"
        },
        {
          "internalType": "uint256",
          "name": "subtractedValue",
          "type": "uint256"
        }
      ],
      "name": "decreaseAllowance",
      "outputs": [
        {
          "internalType": "bool",
          "name": "",
          "type": "bool"
        }
      ],
      "stateMutability": "nonpayable",
      "type": "function"
    },
    {
      "inputs": [
        {
          "internalType": "uint256",
          "name": "assets",
          "type": "uint256"
        },
        {
          "internalType": "address",
          "name": "receiver",
          "type": "address"
        }
      ],
      "name": "deposit",
      "outputs": [
        {
          "internalType": "uint256",
          "name": "",
          "type": "uint256"
        }
      ],
      "stateMutability": "nonpayable",
      "type": "function"
    },
    {
      "inputs": [
        {
          "internalType": "address",
          "name": "spender",
          "type": "address"
        },
        {
          "internalType": "uint256",
          "name": "addedValue",
          "type": "uint256"
        }
      ],
      "name": "increaseAllowance",
      "outputs": [
        {
          "internalType": "bool",
          "name": "",
          "type": "bool"
        }
      ],
      "stateMutability": "nonpayable",
      "type": "function"
    },
    {
      "inputs": [
        {
          "internalType": "address",
          "name": "",
          "type": "address"
        }
      ],
      "name": "maxDeposit",
      "outputs": [
        {
          "internalType": "uint256",
          "name": "",
          "type": "uint256"
        }
      ],
      "stateMutability": "view",
      "type": "function"
    },
    {
      "inputs": [
        {
          "internalType": "address",
          "name": "",
          "type": "address"
        }
      ],
      "name": "maxMint",
      "outputs": [
        {
          "internalType": "uint256",
          "name": "",
          "type": "uint256"
        }
      ],
      "stateMutability": "view",
      "type": "function"
    },
    {
      "inputs": [
        {
          "internalType": "address",
          "name": "owner",
          "type": "address"
        }
      ],
      "name": "maxRedeem",
      "outputs": [
        {
          "internalType": "uint256",
          "name": "",
          "type": "uint256"
        }
      ],
      "stateMutability": "view",
      "type": "function"
    },
    {
      "inputs": [
        {
          "internalType": "address",
          "name": "owner",
          "type": "address"
        }
      ],
      "name": "maxWithdraw",
      "outputs": [
        {
          "internalType": "uint256",
          "name": "",
          "type": "uint256"
        }
      ],
      "stateMutability": "view",
      "type": "function"
    },
    {
      "inputs": [
        {
          "internalType": "uint256",
          "name": "shares",
          "type": "uint256"
        },
        {
          "internalType": "address",
          "name": "receiver",
          "type": "address"
        }
      ],
      "name": "mint",
      "outputs": [
        {
          "internalType": "uint256",
          "name": "",
          "type": "uint256"
        }
      ],
      "stateMutability": "nonpayable",
      "type": "function"
    },
    {
      "inputs": [],
      "name": "name",
      "outputs": [
        {
          "internalType": "string",
          "name": "",
          "type": "string"
        }
      ],
      "stateMutability": "view",
      "type": "function"
    },
    {
      "inputs": [
        {
          "internalType": "uint256",
          "name": "assets",
          "type": "uint256"
        }
      ],
      "name": "previewDeposit",
      "outputs": [
        {
          "internalType": "uint256",
          "name": "",
          "type": "uint256"
        }
      ],
      "stateMutability": "view",
      "type": "function"
    },
    {
      "inputs": [
        {
          "internalType": "uint256",
          "name": "shares",
          "type": "uint256"
        }
      ],
      "name": "previewMint",
      "outputs": [
        {
          "internalType": "uint256",
          "name": "",
          "type": "uint256"
        }
      ],
      "stateMutability": "view",
      "type": "function"
    },
    {
      "inputs": [
        {
          "internalType": "uint256",
          "name": "shares",
          "type": "uint256"
        }
      ],
      "name": "previewRedeem",
      "outputs": [
        {
          "internalType": "uint256",
          "name": "",
          "type": "uint256"
        }
      ],
      "stateMutability": "view",
      "type": "function"
    },
    {
      "inputs": [
        {
          "internalType": "uint256",
          "name": "assets",
          "type": "uint256"
        }
      ],
      "name": "previewWithdraw",
      "outputs": [
        {
          "internalType": "uint256",
          "name": "",
          "type": "uint256"
        }
      ],
      "stateMutability": "view",
      "type": "function"
    },
    {
      "inputs": [
        {
          "internalType": "uint256",
          "name": "shares",
          "type": "uint256"
        },
        {
          "internalType": "address",
          "name": "receiver",
          "type": "address"
        },
        {
          "internalType": "address",
          "name": "owner",
          "type": "address"
        }
      ],
      "name": "redeem",
      "outputs": [
        {
          "internalType": "uint256",
          "name": "",
          "type": "uint256"
        }
      ],
      "stateMutability": "nonpayable",
      "type": "function"
    },
    {
      "inputs": [],
      "name": "symbol",
      "outputs": [
        {
          "internalType": "string",
          "name": "",
          "type": "string"
        }
      ],
      "stateMutability": "view",
      "type": "function"
    },
    {
      "inputs": [],
      "name": "totalAssets",
      "outputs": [
        {
          "internalType": "uint256",
          "name": "",
          "type": "uint256"
        }
      ],
      "stateMutability": "view",
      "type": "function"
    },
    {
      "inputs": [],
      "name": "totalSupply",
      "outputs": [
        {
          "internalType": "uint256",
          "name": "",
          "type": "uint256"
        }
      ],
      "stateMutability": "view",
      "type": "function"
    },
    {
      "inputs": [
        {
          "internalType": "address",
          "name": "to",
          "type": "address"
        },
        {
          "internalType": "uint256",
          "name": "amount",
          "type": "uint256"
        }
      ],
      "name": "transfer",
      "outputs": [
        {
          "internalType": "bool",
          "name": "",
          "type": "bool"
        }
      ],
      "stateMutability": "nonpayable",
      "type": "function"
    },
    {
      "inputs": [
        {
          "internalType": "address",
          "name": "from",
          "type": "address"
        },
        {
          "internalType": "address",
          "name": "to",
          "type": "address"
        },
        {
          "internalType": "uint256",
          "name": "amount",
          "type": "uint256"
        }
      ],
      "name": "transferFrom",
      "outputs": [
        {
          "internalType": "bool",
          "name": "",
          "type": "bool"
        }
      ],
      "stateMutability": "nonpayable",
      "type": "function"
    },
    {
      "inputs": [
        {
          "internalType": "uint256",
          "name": "assets",
          "type": "uint256"
        },
        {
          "internalType": "address",
          "name": "receiver",
          "type": "address"
        },
        {
          "internalType": "address",
          "name": "owner",
          "type": "address"
        }
      ],
      "name": "withdraw",
      "outputs": [
        {
          "internalType": "uint256",
          "name": "",
          "type": "uint256"
        }
      ],
      "stateMutability": "nonpayable",
      "type": "function"
    }
  ],
  "bytecode": "0x60c06040526000600760146101000a81548160ff021916908360038111156200002d576200002c62000321565b5b02179055503480156200003f57600080fd5b5060405162003ddc38038062003ddc8339818101604052810190620000659190620006e8565b838686816003908162000079919062000a22565b5080600490816200008b919062000a22565b505050600080620000a283620001e760201b60201c565b9150915081620000b4576012620000b6565b805b60ff1660a08160ff16815250508273ffffffffffffffffffffffffffffffffffffffff1660808173ffffffffffffffffffffffffffffffffffffffff168152505050505082600760006101000a81548173ffffffffffffffffffffffffffffffffffffffff021916908373ffffffffffffffffffffffffffffffffffffffff1602179055508160058190555060005b8151811015620001da576001600660008484815181106200016b576200016a62000b09565b5b602002602001015173ffffffffffffffffffffffffffffffffffffffff1673ffffffffffffffffffffffffffffffffffffffff16815260200190815260200160002060006101000a81548160ff0219169083151502179055508080620001d19062000b67565b91505062000145565b5050505050505062000c4c565b6000806000808473ffffffffffffffffffffffffffffffffffffffff1663313ce56760e01b604051602401604051602081830303815290604052907bffffffffffffffffffffffffffffffffffffffffffffffffffffffff19166020820180517bffffffffffffffffffffffffffffffffffffffffffffffffffffffff83818316178352505050506040516200027e919062000c01565b600060405180830381855afa9150503d8060008114620002bb576040519150601f19603f3d011682016040523d82523d6000602084013e620002c0565b606091505b5091509150818015620002d557506020815110155b156200031257600081806020019051810190620002f3919062000c1a565b905060ff801681116200031057600181945094505050506200031c565b505b6000809350935050505b915091565b7f4e487b7100000000000000000000000000000000000000000000000000000000600052602160045260246000fd5b6000604051905090565b600080fd5b600080fd5b600080fd5b600080fd5b6000601f19601f8301169050919050565b7f4e487b7100000000000000000000000000000000000000000000000000000000600052604160045260246000fd5b620003b9826200036e565b810181811067ffffffffffffffff82111715620003db57620003da6200037f565b5b80604052505050565b6000620003f062000350565b9050620003fe8282620003ae565b919050565b600067ffffffffffffffff8211156200042157620004206200037f565b5b6200042c826200036e565b9050602081019050919050565b60005b83811015620004595780820151818401526020810190506200043c565b60008484015250505050565b60006200047c620004768462000403565b620003e4565b9050828152602081018484840111156200049b576200049a62000369565b5b620004a884828562000439565b509392505050565b600082601f830112620004c857620004c762000364565b5b8151620004da84826020860162000465565b91505092915050565b600073ffffffffffffffffffffffffffffffffffffffff82169050919050565b60006200051082620004e3565b9050919050565b6000620005248262000503565b9050919050565b620005368162000517565b81146200054257600080fd5b50565b60008151905062000556816200052b565b92915050565b6000620005698262000503565b9050919050565b6200057b816200055c565b81146200058757600080fd5b50565b6000815190506200059b8162000570565b92915050565b6000819050919050565b620005b681620005a1565b8114620005c257600080fd5b50565b600081519050620005d681620005ab565b92915050565b600067ffffffffffffffff821115620005fa57620005f96200037f565b5b602082029050602081019050919050565b600080fd5b6200061b8162000503565b81146200062757600080fd5b50565b6000815190506200063b8162000610565b92915050565b6000620006586200065284620005dc565b620003e4565b905080838252602082019050602084028301858111156200067e576200067d6200060b565b5b835b81811015620006ab57806200069688826200062a565b84526020840193505060208101905062000680565b5050509392505050565b600082601f830112620006cd57620006cc62000364565b5b8151620006df84826020860162000641565b91505092915050565b60008060008060008060c087890312156200070857620007076200035a565b5b600087015167ffffffffffffffff8111156200072957620007286200035f565b5b6200073789828a01620004b0565b965050602087015167ffffffffffffffff8111156200075b576200075a6200035f565b5b6200076989828a01620004b0565b95505060406200077c89828a0162000545565b94505060606200078f89828a016200058a565b9350506080620007a289828a01620005c5565b92505060a087015167ffffffffffffffff811115620007c657620007c56200035f565b5b620007d489828a01620006b5565b9150509295509295509295565b600081519050919050565b7f4e487b7100000000000000000000000000000000000000000000000000000000600052602260045260246000fd5b600060028204905060018216806200083457607f821691505b6020821081036200084a5762000849620007ec565b5b50919050565b60008190508160005260206000209050919050565b60006020601f8301049050919050565b600082821b905092915050565b600060088302620008b47fffffffffffffffffffffffffffffffffffffffffffffffffffffffffffffffff8262000875565b620008c0868362000875565b95508019841693508086168417925050509392505050565b6000819050919050565b600062000903620008fd620008f784620005a1565b620008d8565b620005a1565b9050919050565b6000819050919050565b6200091f83620008e2565b620009376200092e826200090a565b84845462000882565b825550505050565b600090565b6200094e6200093f565b6200095b81848462000914565b505050565b5b8181101562000983576200097760008262000944565b60018101905062000961565b5050565b601f821115620009d2576200099c8162000850565b620009a78462000865565b81016020851015620009b7578190505b620009cf620009c68562000865565b83018262000960565b50505b505050565b600082821c905092915050565b6000620009f760001984600802620009d7565b1980831691505092915050565b600062000a128383620009e4565b9150826002028217905092915050565b62000a2d82620007e1565b67ffffffffffffffff81111562000a495762000a486200037f565b5b62000a5582546200081b565b62000a6282828562000987565b600060209050601f83116001811462000a9a576000841562000a85578287015190505b62000a91858262000a04565b86555062000b01565b601f19841662000aaa8662000850565b60005b8281101562000ad45784890151825560018201915060208501945060208101905062000aad565b8683101562000af4578489015162000af0601f891682620009e4565b8355505b6001600288020188555050505b505050505050565b7f4e487b7100000000000000000000000000000000000000000000000000000000600052603260045260246000fd5b7f4e487b7100000000000000000000000000000000000000000000000000000000600052601160045260246000fd5b600062000b7482620005a1565b91507fffffffffffffffffffffffffffffffffffffffffffffffffffffffffffffffff820362000ba95762000ba862000b38565b5b600182019050919050565b600081519050919050565b600081905092915050565b600062000bd78262000bb4565b62000be3818562000bbf565b935062000bf581856020860162000439565b80840191505092915050565b600062000c0f828462000bca565b915081905092915050565b60006020828403121562000c335762000c326200035a565b5b600062000c4384828501620005c5565b91505092915050565b60805160a05161315562000c8760003960006112eb0152600081816106560152818161081c0152818161139501526117db01526131556000f3fe608060405234801561001057600080fd5b50600436106101a95760003560e01c806370a08231116100f9578063ba08765211610097578063ce96cb7711610071578063ce96cb7714610592578063d905777e146105c2578063dd62ed3e146105f2578063ef8b30f714610622576101a9565b8063ba08765214610502578063c63d75b614610532578063c6e6f59214610562576101a9565b8063a457c2d7116100d3578063a457c2d714610442578063a9059cbb14610472578063b3d7f6b9146104a2578063b460af94146104d2576101a9565b806370a08231146103c457806394bf804d146103f457806395d89b4114610424576101a9565b806323b872dd1161016657806339509351116101405780633950935114610304578063402d267d146103345780634cdad506146103645780636e553f6514610394576101a9565b806323b872dd14610298578063313ce567146102c857806338d52e0f146102e6576101a9565b806301e1d114146101ae57806306fdde03146101cc57806307a2d13a146101ea578063095ea7b31461021a5780630a28a4771461024a57806318160ddd1461027a575b600080fd5b6101b6610652565b6040516101c39190611e98565b60405180910390f35b6101d46106f3565b6040516101e19190611f43565b60405180910390f35b61020460048036038101906101ff9190611f96565b610785565b6040516102119190611e98565b60405180910390f35b610234600480360381019061022f9190612021565b610799565b604051610241919061207c565b60405180910390f35b610264600480360381019061025f9190611f96565b6107bc565b6040516102719190611e98565b60405180910390f35b6102826107d0565b60405161028f9190611e98565b60405180910390f35b6102b260048036038101906102ad9190612097565b6107da565b6040516102bf919061207c565b60405180910390f35b6102d0610809565b6040516102dd9190612106565b60405180910390f35b6102ee610818565b6040516102fb9190612130565b60405180910390f35b61031e60048036038101906103199190612021565b610840565b60405161032b919061207c565b60405180910390f35b61034e6004803603810190610349919061214b565b610877565b60405161035b9190611e98565b60405180910390f35b61037e60048036038101906103799190611f96565b6108a1565b60405161038b9190611e98565b60405180910390f35b6103ae60048036038101906103a99190612178565b6108b5565b6040516103bb9190611e98565b60405180910390f35b6103de60048036038101906103d9919061214b565b61093e565b6040516103eb9190611e98565b60405180910390f35b61040e60048036038101906104099190612178565b610986565b60405161041b9190611e98565b60405180910390f35b61042c6109fd565b6040516104399190611f43565b60405180910390f35b61045c60048036038101906104579190612021565b610a8f565b604051610469919061207c565b60405180910390f35b61048c60048036038101906104879190612021565b610b06565b604051610499919061207c565b60405180910390f35b6104bc60048036038101906104b79190611f96565b610b29565b6040516104c99190611e98565b60405180910390f35b6104ec60048036038101906104e791906121b8565b610b3d565b6040516104f99190611e98565b60405180910390f35b61051c600480360381019061051791906121b8565b610bc8565b6040516105299190611e98565b60405180910390f35b61054c6004803603810190610547919061214b565b610c53565b6040516105599190611e98565b60405180910390f35b61057c60048036038101906105779190611f96565b610c7d565b6040516105899190611e98565b60405180910390f35b6105ac60048036038101906105a7919061214b565b610c91565b6040516105b99190611e98565b60405180910390f35b6105dc60048036038101906105d7919061214b565b610cad565b6040516105e99190611e98565b60405180910390f35b61060c6004803603810190610607919061220b565b610cbf565b6040516106199190611e98565b60405180910390f35b61063c60048036038101906106379190611f96565b610d46565b6040516106499190611e98565b60405180910390f35b60007f000000000000000000000000000000000000000000000000000000000000000073ffffffffffffffffffffffffffffffffffffffff166370a08231306040518263ffffffff1660e01b81526004016106ad9190612130565b602060405180830381865afa1580156106ca573d6000803e3d6000fd5b505050506040513d601f19601f820116820180604052508101906106ee9190612260565b905090565b606060038054610702906122bc565b80601f016020809104026020016040519081016040528092919081815260200182805461072e906122bc565b801561077b5780601f106107505761010080835404028352916020019161077b565b820191906000526020600020905b81548152906001019060200180831161075e57829003601f168201915b5050505050905090565b6000610792826000610d5a565b9050919050565b6000806107a4610db3565b90506107b1818585610dbb565b600191505092915050565b60006107c9826001610f84565b9050919050565b6000600254905090565b6000806107e5610db3565b90506107f2858285610fdd565b6107fd858585611069565b60019150509392505050565b60006108136112df565b905090565b60007f0000000000000000000000000000000000000000000000000000000000000000905090565b60008061084b610db3565b905061086c81858561085d8589610cbf565b610867919061231c565b610dbb565b600191505092915050565b60007fffffffffffffffffffffffffffffffffffffffffffffffffffffffffffffffff9050919050565b60006108ae826000610d5a565b9050919050565b60008060038111156108ca576108c9612350565b5b600760149054906101000a900460ff1660038111156108ec576108eb612350565b5b1461092c576040517f08c379a0000000000000000000000000000000000000000000000000000000008152600401610923906123cb565b60405180910390fd5b6109368383611319565b905092915050565b60008060008373ffffffffffffffffffffffffffffffffffffffff1673ffffffffffffffffffffffffffffffffffffffff168152602001908152602001600020549050919050565b600061099182610c53565b8311156109d3576040517f08c379a00000000000000000000000000000000000000000000000000000000081526004016109ca90612437565b60405180910390fd5b60006109de84610b29565b90506109f36109eb610db3565b848387611390565b8091505092915050565b606060048054610a0c906122bc565b80601f0160208091040260200160405190810160405280929190818152602001828054610a38906122bc565b8015610a855780601f10610a5a57610100808354040283529160200191610a85565b820191906000526020600020905b815481529060010190602001808311610a6857829003601f168201915b5050505050905090565b600080610a9a610db3565b90506000610aa88286610cbf565b905083811015610aed576040517f08c379a0000000000000000000000000000000000000000000000000000000008152600401610ae4906124c9565b60405180910390fd5b610afa8286868403610dbb565b60019250505092915050565b600080610b11610db3565b9050610b1e818585611069565b600191505092915050565b6000610b36826001610d5a565b9050919050565b6000600380811115610b5257610b51612350565b5b600760149054906101000a900460ff166003811115610b7457610b73612350565b5b14610bb4576040517f08c379a0000000000000000000000000000000000000000000000000000000008152600401610bab9061255b565b60405180910390fd5b610bbf848484611433565b90509392505050565b6000600380811115610bdd57610bdc612350565b5b600760149054906101000a900460ff166003811115610bff57610bfe612350565b5b14610c3f576040517f08c379a0000000000000000000000000000000000000000000000000000000008152600401610c36906125c7565b60405180910390fd5b610c4a8484846114ac565b90509392505050565b60007fffffffffffffffffffffffffffffffffffffffffffffffffffffffffffffffff9050919050565b6000610c8a826000610f84565b9050919050565b6000610ca6610c9f8361093e565b6000610d5a565b9050919050565b6000610cb88261093e565b9050919050565b6000600160008473ffffffffffffffffffffffffffffffffffffffff1673ffffffffffffffffffffffffffffffffffffffff16815260200190815260200160002060008373ffffffffffffffffffffffffffffffffffffffff1673ffffffffffffffffffffffffffffffffffffffff16815260200190815260200160002054905092915050565b6000610d53826000610f84565b9050919050565b6000610dab6001610d69610652565b610d73919061231c565b610d7b611525565b600a610d87919061271a565b610d8f6107d0565b610d99919061231c565b848661152e909392919063ffffffff16565b905092915050565b600033905090565b600073ffffffffffffffffffffffffffffffffffffffff168373ffffffffffffffffffffffffffffffffffffffff1603610e2a576040517f08c379a0000000000000000000000000000000000000000000000000000000008152600401610e21906127d7565b60405180910390fd5b600073ffffffffffffffffffffffffffffffffffffffff168273ffffffffffffffffffffffffffffffffffffffff1603610e99576040517f08c379a0000000000000000000000000000000000000000000000000000000008152600401610e9090612869565b60405180910390fd5b80600160008573ffffffffffffffffffffffffffffffffffffffff1673ffffffffffffffffffffffffffffffffffffffff16815260200190815260200160002060008473ffffffffffffffffffffffffffffffffffffffff1673ffffffffffffffffffffffffffffffffffffffff168152602001908152602001600020819055508173ffffffffffffffffffffffffffffffffffffffff168373ffffffffffffffffffffffffffffffffffffffff167f8c5be1e5ebec7d5bd14f71427d1e84f3dd0314c0f7b2291e5b200ac8c7c3b92583604051610f779190611e98565b60405180910390a3505050565b6000610fd5610f91611525565b600a610f9d919061271a565b610fa56107d0565b610faf919061231c565b6001610fb9610652565b610fc3919061231c565b848661152e909392919063ffffffff16565b905092915050565b6000610fe98484610cbf565b90507fffffffffffffffffffffffffffffffffffffffffffffffffffffffffffffffff81146110635781811015611055576040517f08c379a000000000000000000000000000000000000000000000000000000000815260040161104c906128d5565b60405180910390fd5b6110628484848403610dbb565b5b50505050565b600073ffffffffffffffffffffffffffffffffffffffff168373ffffffffffffffffffffffffffffffffffffffff16036110d8576040517f08c379a00000000000000000000000000000000000000000000000000000000081526004016110cf90612967565b60405180910390fd5b600073ffffffffffffffffffffffffffffffffffffffff168273ffffffffffffffffffffffffffffffffffffffff1603611147576040517f08c379a000000000000000000000000000000000000000000000000000000000815260040161113e906129f9565b60405180910390fd5b6111528383836115a4565b60008060008573ffffffffffffffffffffffffffffffffffffffff1673ffffffffffffffffffffffffffffffffffffffff168152602001908152602001600020549050818110156111d8576040517f08c379a00000000000000000000000000000000000000000000000000000000081526004016111cf90612a8b565b60405180910390fd5b8181036000808673ffffffffffffffffffffffffffffffffffffffff1673ffffffffffffffffffffffffffffffffffffffff16815260200190815260200160002081905550816000808573ffffffffffffffffffffffffffffffffffffffff1673ffffffffffffffffffffffffffffffffffffffff168152602001908152602001600020600082825401925050819055508273ffffffffffffffffffffffffffffffffffffffff168473ffffffffffffffffffffffffffffffffffffffff167fddf252ad1be2c89b69c2b068fc378daa952ba7f163c4a11628f55a4df523b3ef846040516112c69190611e98565b60405180910390a36112d98484846115a9565b50505050565b60006112e9611525565b7f00000000000000000000000000000000000000000000000000000000000000006113149190612aab565b905090565b600061132482610877565b831115611366576040517f08c379a000000000000000000000000000000000000000000000000000000000815260040161135d90612b2c565b60405180910390fd5b600061137184610d46565b905061138661137e610db3565b848684611390565b8091505092915050565b6113bc7f00000000000000000000000000000000000000000000000000000000000000008530856115ae565b6113c68382611637565b8273ffffffffffffffffffffffffffffffffffffffff168473ffffffffffffffffffffffffffffffffffffffff167fdcbc1c05240f31ff3ad067ef1ee35ce4997762752e3a095284754544f4c709d78484604051611425929190612b4c565b60405180910390a350505050565b600061143e82610c91565b841115611480576040517f08c379a000000000000000000000000000000000000000000000000000000000815260040161147790612bc1565b60405180910390fd5b600061148b856107bc565b90506114a1611498610db3565b8585888561178d565b809150509392505050565b60006114b782610cad565b8411156114f9576040517f08c379a00000000000000000000000000000000000000000000000000000000081526004016114f090612c2d565b60405180910390fd5b6000611504856108a1565b905061151a611511610db3565b8585848961178d565b809150509392505050565b6000600c905090565b60008061153c868686611886565b90506001600281111561155257611551612350565b5b83600281111561156557611564612350565b5b14801561158357506000848061157e5761157d612c4d565b5b868809115b1561159857600181611595919061231c565b90505b80915050949350505050565b505050565b505050565b611631846323b872dd60e01b8585856040516024016115cf93929190612c7c565b604051602081830303815290604052907bffffffffffffffffffffffffffffffffffffffffffffffffffffffff19166020820180517bffffffffffffffffffffffffffffffffffffffffffffffffffffffff8381831617835250505050611997565b50505050565b600073ffffffffffffffffffffffffffffffffffffffff168273ffffffffffffffffffffffffffffffffffffffff16036116a6576040517f08c379a000000000000000000000000000000000000000000000000000000000815260040161169d90612cff565b60405180910390fd5b6116b2600083836115a4565b80600260008282546116c4919061231c565b92505081905550806000808473ffffffffffffffffffffffffffffffffffffffff1673ffffffffffffffffffffffffffffffffffffffff168152602001908152602001600020600082825401925050819055508173ffffffffffffffffffffffffffffffffffffffff16600073ffffffffffffffffffffffffffffffffffffffff167fddf252ad1be2c89b69c2b068fc378daa952ba7f163c4a11628f55a4df523b3ef836040516117759190611e98565b60405180910390a3611789600083836115a9565b5050565b8273ffffffffffffffffffffffffffffffffffffffff168573ffffffffffffffffffffffffffffffffffffffff16146117cc576117cb838683610fdd565b5b6117d68382611a5f565b6118017f00000000000000000000000000000000000000000000000000000000000000008584611c2c565b8273ffffffffffffffffffffffffffffffffffffffff168473ffffffffffffffffffffffffffffffffffffffff168673ffffffffffffffffffffffffffffffffffffffff167ffbde797d201c681b91056529119e0b02407c7bb96a4a2c75c01fc9667232c8db8585604051611877929190612b4c565b60405180910390a45050505050565b60008060008019858709858702925082811083820303915050600081036118c1578382816118b7576118b6612c4d565b5b0492505050611990565b808411611903576040517f08c379a00000000000000000000000000000000000000000000000000000000081526004016118fa90612d6b565b60405180910390fd5b60008486880990508281118203915080830392506000600186190186169050808604955080840493506001818260000304019050808302841793506000600287600302189050808702600203810290508087026002038102905080870260020381029050808702600203810290508087026002038102905080870260020381029050808502955050505050505b9392505050565b60006119f9826040518060400160405280602081526020017f5361666545524332303a206c6f772d6c6576656c2063616c6c206661696c65648152508573ffffffffffffffffffffffffffffffffffffffff16611cb29092919063ffffffff16565b9050600081511480611a1b575080806020019051810190611a1a9190612db7565b5b611a5a576040517f08c379a0000000000000000000000000000000000000000000000000000000008152600401611a5190612e56565b60405180910390fd5b505050565b600073ffffffffffffffffffffffffffffffffffffffff168273ffffffffffffffffffffffffffffffffffffffff1603611ace576040517f08c379a0000000000000000000000000000000000000000000000000000000008152600401611ac590612ee8565b60405180910390fd5b611ada826000836115a4565b60008060008473ffffffffffffffffffffffffffffffffffffffff1673ffffffffffffffffffffffffffffffffffffffff16815260200190815260200160002054905081811015611b60576040517f08c379a0000000000000000000000000000000000000000000000000000000008152600401611b5790612f7a565b60405180910390fd5b8181036000808573ffffffffffffffffffffffffffffffffffffffff1673ffffffffffffffffffffffffffffffffffffffff1681526020019081526020016000208190555081600260008282540392505081905550600073ffffffffffffffffffffffffffffffffffffffff168373ffffffffffffffffffffffffffffffffffffffff167fddf252ad1be2c89b69c2b068fc378daa952ba7f163c4a11628f55a4df523b3ef84604051611c139190611e98565b60405180910390a3611c27836000846115a9565b505050565b611cad8363a9059cbb60e01b8484604051602401611c4b929190612f9a565b604051602081830303815290604052907bffffffffffffffffffffffffffffffffffffffffffffffffffffffff19166020820180517bffffffffffffffffffffffffffffffffffffffffffffffffffffffff8381831617835250505050611997565b505050565b6060611cc18484600085611cca565b90509392505050565b606082471015611d0f576040517f08c379a0000000000000000000000000000000000000000000000000000000008152600401611d0690613035565b60405180910390fd5b6000808673ffffffffffffffffffffffffffffffffffffffff168587604051611d38919061309c565b60006040518083038185875af1925050503d8060008114611d75576040519150601f19603f3d011682016040523d82523d6000602084013e611d7a565b606091505b5091509150611d8b87838387611d97565b92505050949350505050565b60608315611df9576000835103611df157611db185611e0c565b611df0576040517f08c379a0000000000000000000000000000000000000000000000000000000008152600401611de7906130ff565b60405180910390fd5b5b829050611e04565b611e038383611e2f565b5b949350505050565b6000808273ffffffffffffffffffffffffffffffffffffffff163b119050919050565b600082511115611e425781518083602001fd5b806040517f08c379a0000000000000000000000000000000000000000000000000000000008152600401611e769190611f43565b60405180910390fd5b6000819050919050565b611e9281611e7f565b82525050565b6000602082019050611ead6000830184611e89565b92915050565b600081519050919050565b600082825260208201905092915050565b60005b83811015611eed578082015181840152602081019050611ed2565b60008484015250505050565b6000601f19601f8301169050919050565b6000611f1582611eb3565b611f1f8185611ebe565b9350611f2f818560208601611ecf565b611f3881611ef9565b840191505092915050565b60006020820190508181036000830152611f5d8184611f0a565b905092915050565b600080fd5b611f7381611e7f565b8114611f7e57600080fd5b50565b600081359050611f9081611f6a565b92915050565b600060208284031215611fac57611fab611f65565b5b6000611fba84828501611f81565b91505092915050565b600073ffffffffffffffffffffffffffffffffffffffff82169050919050565b6000611fee82611fc3565b9050919050565b611ffe81611fe3565b811461200957600080fd5b50565b60008135905061201b81611ff5565b92915050565b6000806040838503121561203857612037611f65565b5b60006120468582860161200c565b925050602061205785828601611f81565b9150509250929050565b60008115159050919050565b61207681612061565b82525050565b6000602082019050612091600083018461206d565b92915050565b6000806000606084860312156120b0576120af611f65565b5b60006120be8682870161200c565b93505060206120cf8682870161200c565b92505060406120e086828701611f81565b9150509250925092565b600060ff82169050919050565b612100816120ea565b82525050565b600060208201905061211b60008301846120f7565b92915050565b61212a81611fe3565b82525050565b60006020820190506121456000830184612121565b92915050565b60006020828403121561216157612160611f65565b5b600061216f8482850161200c565b91505092915050565b6000806040838503121561218f5761218e611f65565b5b600061219d85828601611f81565b92505060206121ae8582860161200c565b9150509250929050565b6000806000606084860312156121d1576121d0611f65565b5b60006121df86828701611f81565b93505060206121f08682870161200c565b92505060406122018682870161200c565b9150509250925092565b6000806040838503121561222257612221611f65565b5b60006122308582860161200c565b92505060206122418582860161200c565b9150509250929050565b60008151905061225a81611f6a565b92915050565b60006020828403121561227657612275611f65565b5b60006122848482850161224b565b91505092915050565b7f4e487b7100000000000000000000000000000000000000000000000000000000600052602260045260246000fd5b600060028204905060018216806122d457607f821691505b6020821081036122e7576122e661228d565b5b50919050565b7f4e487b7100000000000000000000000000000000000000000000000000000000600052601160045260246000fd5b600061232782611e7f565b915061233283611e7f565b925082820190508082111561234a576123496122ed565b5b92915050565b7f4e487b7100000000000000000000000000000000000000000000000000000000600052602160045260246000fd5b7f43616e206f6e6c79206465706f736974207072652d7472616465000000000000600082015250565b60006123b5601a83611ebe565b91506123c08261237f565b602082019050919050565b600060208201905081810360008301526123e4816123a8565b9050919050565b7f455243343632363a206d696e74206d6f7265207468616e206d61780000000000600082015250565b6000612421601b83611ebe565b915061242c826123eb565b602082019050919050565b6000602082019050818103600083015261245081612414565b9050919050565b7f45524332303a2064656372656173656420616c6c6f77616e63652062656c6f7760008201527f207a65726f000000000000000000000000000000000000000000000000000000602082015250565b60006124b3602583611ebe565b91506124be82612457565b604082019050919050565b600060208201905081810360008301526124e2816124a6565b9050919050565b7f43616e206f6e6c7920776974686472617720706f73742d736574746c656d656e60008201527f7400000000000000000000000000000000000000000000000000000000000000602082015250565b6000612545602183611ebe565b9150612550826124e9565b604082019050919050565b6000602082019050818103600083015261257481612538565b9050919050565b7f43616e206f6e6c792072656465656d20706f73742d736574746c656d656e7400600082015250565b60006125b1601f83611ebe565b91506125bc8261257b565b602082019050919050565b600060208201905081810360008301526125e0816125a4565b9050919050565b60008160011c9050919050565b6000808291508390505b600185111561263e5780860481111561261a576126196122ed565b5b60018516156126295780820291505b8081029050612637856125e7565b94506125fe565b94509492505050565b6000826126575760019050612713565b816126655760009050612713565b816001811461267b5760028114612685576126b4565b6001915050612713565b60ff841115612697576126966122ed565b5b8360020a9150848211156126ae576126ad6122ed565b5b50612713565b5060208310610133831016604e8410600b84101617156126e95782820a9050838111156126e4576126e36122ed565b5b612713565b6126f684848460016125f4565b9250905081840481111561270d5761270c6122ed565b5b81810290505b9392505050565b600061272582611e7f565b9150612730836120ea565b925061275d7fffffffffffffffffffffffffffffffffffffffffffffffffffffffffffffffff8484612647565b905092915050565b7f45524332303a20617070726f76652066726f6d20746865207a65726f2061646460008201527f7265737300000000000000000000000000000000000000000000000000000000602082015250565b60006127c1602483611ebe565b91506127cc82612765565b604082019050919050565b600060208201905081810360008301526127f0816127b4565b9050919050565b7f45524332303a20617070726f766520746f20746865207a65726f20616464726560008201527f7373000000000000000000000000000000000000000000000000000000000000602082015250565b6000612853602283611ebe565b915061285e826127f7565b604082019050919050565b6000602082019050818103600083015261288281612846565b9050919050565b7f45524332303a20696e73756666696369656e7420616c6c6f77616e6365000000600082015250565b60006128bf601d83611ebe565b91506128ca82612889565b602082019050919050565b600060208201905081810360008301526128ee816128b2565b9050919050565b7f45524332303a207472616e736665722066726f6d20746865207a65726f20616460008201527f6472657373000000000000000000000000000000000000000000000000000000602082015250565b6000612951602583611ebe565b915061295c826128f5565b604082019050919050565b6000602082019050818103600083015261298081612944565b9050919050565b7f45524332303a207472616e7366657220746f20746865207a65726f206164647260008201527f6573730000000000000000000000000000000000000000000000000000000000602082015250565b60006129e3602383611ebe565b91506129ee82612987565b604082019050919050565b60006020820190508181036000830152612a12816129d6565b9050919050565b7f45524332303a207472616e7366657220616d6f756e742065786365656473206260008201527f616c616e63650000000000000000000000000000000000000000000000000000602082015250565b6000612a75602683611ebe565b9150612a8082612a19565b604082019050919050565b60006020820190508181036000830152612aa481612a68565b9050919050565b6000612ab6826120ea565b9150612ac1836120ea565b9250828201905060ff811115612ada57612ad96122ed565b5b92915050565b7f455243343632363a206465706f736974206d6f7265207468616e206d61780000600082015250565b6000612b16601e83611ebe565b9150612b2182612ae0565b602082019050919050565b60006020820190508181036000830152612b4581612b09565b9050919050565b6000604082019050612b616000830185611e89565b612b6e6020830184611e89565b9392505050565b7f455243343632363a207769746864726177206d6f7265207468616e206d617800600082015250565b6000612bab601f83611ebe565b9150612bb682612b75565b602082019050919050565b60006020820190508181036000830152612bda81612b9e565b9050919050565b7f455243343632363a2072656465656d206d6f7265207468616e206d6178000000600082015250565b6000612c17601d83611ebe565b9150612c2282612be1565b602082019050919050565b60006020820190508181036000830152612c4681612c0a565b9050919050565b7f4e487b7100000000000000000000000000000000000000000000000000000000600052601260045260246000fd5b6000606082019050612c916000830186612121565b612c9e6020830185612121565b612cab6040830184611e89565b949350505050565b7f45524332303a206d696e7420746f20746865207a65726f206164647265737300600082015250565b6000612ce9601f83611ebe565b9150612cf482612cb3565b602082019050919050565b60006020820190508181036000830152612d1881612cdc565b9050919050565b7f4d6174683a206d756c446976206f766572666c6f770000000000000000000000600082015250565b6000612d55601583611ebe565b9150612d6082612d1f565b602082019050919050565b60006020820190508181036000830152612d8481612d48565b9050919050565b612d9481612061565b8114612d9f57600080fd5b50565b600081519050612db181612d8b565b92915050565b600060208284031215612dcd57612dcc611f65565b5b6000612ddb84828501612da2565b91505092915050565b7f5361666545524332303a204552433230206f7065726174696f6e20646964206e60008201527f6f74207375636365656400000000000000000000000000000000000000000000602082015250565b6000612e40602a83611ebe565b9150612e4b82612de4565b604082019050919050565b60006020820190508181036000830152612e6f81612e33565b9050919050565b7f45524332303a206275726e2066726f6d20746865207a65726f2061646472657360008201527f7300000000000000000000000000000000000000000000000000000000000000602082015250565b6000612ed2602183611ebe565b9150612edd82612e76565b604082019050919050565b60006020820190508181036000830152612f0181612ec5565b9050919050565b7f45524332303a206275726e20616d6f756e7420657863656564732062616c616e60008201527f6365000000000000000000000000000000000000000000000000000000000000602082015250565b6000612f64602283611ebe565b9150612f6f82612f08565b604082019050919050565b60006020820190508181036000830152612f9381612f57565b9050919050565b6000604082019050612faf6000830185612121565b612fbc6020830184611e89565b9392505050565b7f416464726573733a20696e73756666696369656e742062616c616e636520666f60008201527f722063616c6c0000000000000000000000000000000000000000000000000000602082015250565b600061301f602683611ebe565b915061302a82612fc3565b604082019050919050565b6000602082019050818103600083015261304e81613012565b9050919050565b600081519050919050565b600081905092915050565b600061307682613055565b6130808185613060565b9350613090818560208601611ecf565b80840191505092915050565b60006130a8828461306b565b915081905092915050565b7f416464726573733a2063616c6c20746f206e6f6e2d636f6e7472616374000000600082015250565b60006130e9601d83611ebe565b91506130f4826130b3565b602082019050919050565b60006020820190508181036000830152613118816130dc565b905091905056fea26469706673582212206dcfd1a7d79b5726e9c882b675a2be0be675d015686d6860f6ffcaf9ddfd7d1064736f6c63430008130033",
  "linkReferences": {},
  "deployedLinkReferences": {}
}