{
  "_format": "hh-sol-artifact-1",
  "contractName": "Oracle",
  "sourceName": "contracts/Oracle.sol",
  "abi": [
    {
      "inputs": [
        {
          "internalType": "uint8",
          "name": "_decimals",
          "type": "uint8"
        },
        {
          "internalType": "string",
          "name": "_description",
          "type": "string"
        }
      ],
      "stateMutability": "nonpayable",
      "type": "constructor"
    },
    {
      "anonymous": false,
      "inputs": [
        {
          "indexed": false,
          "internalType": "uint8",
          "name": "decimals",
          "type": "uint8"
        },
        {
          "indexed": false,
          "internalType": "string",
          "name": "description",
          "type": "string"
        }
      ],
      "name": "OracleCreated",
      "type": "event"
    },
    {
      "anonymous": false,
      "inputs": [
        {
          "indexed": false,
          "internalType": "int256",
          "name": "answer",
          "type": "int256"
        },
        {
          "indexed": false,
          "internalType": "uint256",
          "name": "startedAt",
          "type": "uint256"
        },
        {
          "indexed": false,
          "internalType": "uint256",
          "name": "updatedAt",
          "type": "uint256"
        },
        {
          "indexed": false,
          "internalType": "uint80",
          "name": "answeredInRound",
          "type": "uint80"
        }
      ],
      "name": "RoundDataAdded",
      "type": "event"
    },
    {
      "anonymous": false,
      "inputs": [
        {
          "indexed": false,
          "internalType": "uint80",
          "name": "roundId",
          "type": "uint80"
        },
        {
          "indexed": false,
          "internalType": "int256",
          "name": "answer",
          "type": "int256"
        },
        {
          "indexed": false,
          "internalType": "uint256",
          "name": "startedAt",
          "type": "uint256"
        },
        {
          "indexed": false,
          "internalType": "uint256",
          "name": "updatedAt",
          "type": "uint256"
        },
        {
          "indexed": false,
          "internalType": "uint80",
          "name": "answeredInRound",
          "type": "uint80"
        }
      ],
      "name": "RoundDataUpdated",
      "type": "event"
    },
    {
      "inputs": [
        {
          "components": [
            {
              "internalType": "int256",
              "name": "answer",
              "type": "int256"
            },
            {
              "internalType": "uint256",
              "name": "startedAt",
              "type": "uint256"
            },
            {
              "internalType": "uint256",
              "name": "updatedAt",
              "type": "uint256"
            },
            {
              "internalType": "uint80",
              "name": "answeredInRound",
              "type": "uint80"
            }
          ],
          "internalType": "struct Oracle.RoundData",
          "name": "_roundData",
          "type": "tuple"
        }
      ],
      "name": "addNextRoundData",
      "outputs": [],
      "stateMutability": "nonpayable",
      "type": "function"
    },
    {
      "inputs": [],
      "name": "decimals",
      "outputs": [
        {
          "internalType": "uint8",
          "name": "",
          "type": "uint8"
        }
      ],
      "stateMutability": "view",
      "type": "function"
    },
    {
      "inputs": [],
      "name": "description",
      "outputs": [
        {
          "internalType": "string",
          "name": "",
          "type": "string"
        }
      ],
      "stateMutability": "view",
      "type": "function"
    },
    {
      "inputs": [
        {
          "internalType": "uint80",
          "name": "_roundId",
          "type": "uint80"
        }
      ],
      "name": "getRoundData",
      "outputs": [
        {
          "internalType": "uint80",
          "name": "roundId",
          "type": "uint80"
        },
        {
          "internalType": "int256",
          "name": "answer",
          "type": "int256"
        },
        {
          "internalType": "uint256",
          "name": "startedAt",
          "type": "uint256"
        },
        {
          "internalType": "uint256",
          "name": "updatedAt",
          "type": "uint256"
        },
        {
          "internalType": "uint80",
          "name": "answeredInRound",
          "type": "uint80"
        }
      ],
      "stateMutability": "view",
      "type": "function"
    },
    {
      "inputs": [],
      "name": "latestRoundData",
      "outputs": [
        {
          "internalType": "uint80",
          "name": "roundId",
          "type": "uint80"
        },
        {
          "internalType": "int256",
          "name": "answer",
          "type": "int256"
        },
        {
          "internalType": "uint256",
          "name": "startedAt",
          "type": "uint256"
        },
        {
          "internalType": "uint256",
          "name": "updatedAt",
          "type": "uint256"
        },
        {
          "internalType": "uint80",
          "name": "answeredInRound",
          "type": "uint80"
        }
      ],
      "stateMutability": "view",
      "type": "function"
    },
    {
      "inputs": [],
      "name": "nextRoundId",
      "outputs": [
        {
          "internalType": "uint80",
          "name": "",
          "type": "uint80"
        }
      ],
      "stateMutability": "view",
      "type": "function"
    },
    {
      "inputs": [
        {
          "internalType": "uint256",
          "name": "",
          "type": "uint256"
        }
      ],
      "name": "oracleData",
      "outputs": [
        {
          "internalType": "int256",
          "name": "answer",
          "type": "int256"
        },
        {
          "internalType": "uint256",
          "name": "startedAt",
          "type": "uint256"
        },
        {
          "internalType": "uint256",
          "name": "updatedAt",
          "type": "uint256"
        },
        {
          "internalType": "uint80",
          "name": "answeredInRound",
          "type": "uint80"
        }
      ],
      "stateMutability": "view",
      "type": "function"
    },
    {
      "inputs": [],
      "name": "owner",
      "outputs": [
        {
          "internalType": "address",
          "name": "",
          "type": "address"
        }
      ],
      "stateMutability": "view",
      "type": "function"
    },
    {
      "inputs": [
        {
          "internalType": "uint80",
          "name": "roundId",
          "type": "uint80"
        },
        {
          "components": [
            {
              "internalType": "int256",
              "name": "answer",
              "type": "int256"
            },
            {
              "internalType": "uint256",
              "name": "startedAt",
              "type": "uint256"
            },
            {
              "internalType": "uint256",
              "name": "updatedAt",
              "type": "uint256"
            },
            {
              "internalType": "uint80",
              "name": "answeredInRound",
              "type": "uint80"
            }
          ],
          "internalType": "struct Oracle.RoundData",
          "name": "_roundData",
          "type": "tuple"
        }
      ],
      "name": "updateRoundData",
      "outputs": [],
      "stateMutability": "nonpayable",
      "type": "function"
    },
    {
      "inputs": [],
      "name": "version",
      "outputs": [
        {
          "internalType": "uint256",
          "name": "",
          "type": "uint256"
        }
      ],
      "stateMutability": "view",
      "type": "function"
    }
  ],
  "bytecode": "0x608060405260016002553480156200001657600080fd5b50604051620018f1380380620018f183398181016040528101906200003c9190620002bd565b336000806101000a81548173ffffffffffffffffffffffffffffffffffffffff021916908373ffffffffffffffffffffffffffffffffffffffff16021790555081600060146101000a81548160ff021916908360ff1602179055508060019081620000a891906200056e565b507f312e1a74df0e5512af68f6e009dcce78a6ee98581c9a44d9878095c1076211868282604051620000dc929190620006b8565b60405180910390a15050620006ec565b6000604051905090565b600080fd5b600080fd5b600060ff82169050919050565b620001188162000100565b81146200012457600080fd5b50565b60008151905062000138816200010d565b92915050565b600080fd5b600080fd5b6000601f19601f8301169050919050565b7f4e487b7100000000000000000000000000000000000000000000000000000000600052604160045260246000fd5b620001938262000148565b810181811067ffffffffffffffff82111715620001b557620001b462000159565b5b80604052505050565b6000620001ca620000ec565b9050620001d8828262000188565b919050565b600067ffffffffffffffff821115620001fb57620001fa62000159565b5b620002068262000148565b9050602081019050919050565b60005b838110156200023357808201518184015260208101905062000216565b60008484015250505050565b6000620002566200025084620001dd565b620001be565b90508281526020810184848401111562000275576200027462000143565b5b6200028284828562000213565b509392505050565b600082601f830112620002a257620002a16200013e565b5b8151620002b48482602086016200023f565b91505092915050565b60008060408385031215620002d757620002d6620000f6565b5b6000620002e78582860162000127565b925050602083015167ffffffffffffffff8111156200030b576200030a620000fb565b5b62000319858286016200028a565b9150509250929050565b600081519050919050565b7f4e487b7100000000000000000000000000000000000000000000000000000000600052602260045260246000fd5b600060028204905060018216806200037657607f821691505b6020821081036200038c576200038b6200032e565b5b50919050565b60008190508160005260206000209050919050565b60006020601f8301049050919050565b600082821b905092915050565b600060088302620003f67fffffffffffffffffffffffffffffffffffffffffffffffffffffffffffffffff82620003b7565b620004028683620003b7565b95508019841693508086168417925050509392505050565b6000819050919050565b6000819050919050565b60006200044f6200044962000443846200041a565b62000424565b6200041a565b9050919050565b6000819050919050565b6200046b836200042e565b620004836200047a8262000456565b848454620003c4565b825550505050565b600090565b6200049a6200048b565b620004a781848462000460565b505050565b5b81811015620004cf57620004c360008262000490565b600181019050620004ad565b5050565b601f8211156200051e57620004e88162000392565b620004f384620003a7565b8101602085101562000503578190505b6200051b6200051285620003a7565b830182620004ac565b50505b505050565b600082821c905092915050565b6000620005436000198460080262000523565b1980831691505092915050565b60006200055e838362000530565b9150826002028217905092915050565b620005798262000323565b67ffffffffffffffff81111562000595576200059462000159565b5b620005a182546200035d565b620005ae828285620004d3565b600060209050601f831160018114620005e65760008415620005d1578287015190505b620005dd858262000550565b8655506200064d565b601f198416620005f68662000392565b60005b828110156200062057848901518255600182019150602085019450602081019050620005f9565b868310156200064057848901516200063c601f89168262000530565b8355505b6001600288020188555050505b505050505050565b620006608162000100565b82525050565b600082825260208201905092915050565b6000620006848262000323565b62000690818562000666565b9350620006a281856020860162000213565b620006ad8162000148565b840191505092915050565b6000604082019050620006cf600083018562000655565b8181036020830152620006e3818462000677565b90509392505050565b6111f580620006fc6000396000f3fe608060405234801561001057600080fd5b506004361061009e5760003560e01c80638da5cb5b116100665780638da5cb5b146101375780639a6fc8f514610155578063aa4dea0014610189578063ebd0bb30146101bc578063feaf968c146101d85761009e565b8063313ce567146100a35780634002eda6146100c157806348c717af146100df57806354fd4d50146100fb5780637284e41614610119575b600080fd5b6100ab6101fa565b6040516100b891906108e4565b60405180910390f35b6100c961020d565b6040516100d69190610924565b60405180910390f35b6100f960048036038101906100f49190610968565b610229565b005b610103610472565b60405161011091906109ae565b60405180910390f35b610121610478565b60405161012e9190610a59565b60405180910390f35b61013f610506565b60405161014c9190610abc565b60405180910390f35b61016f600480360381019061016a9190610b03565b61052a565b604051610180959493929190610b49565b60405180910390f35b6101a3600480360381019061019e9190610bc8565b610624565b6040516101b39493929190610bf5565b60405180910390f35b6101d660048036038101906101d19190610c3a565b61067a565b005b6101e06107a7565b6040516101f1959493929190610b49565b60405180910390f35b600060149054906101000a900460ff1681565b600460009054906101000a900469ffffffffffffffffffff1681565b60008054906101000a900473ffffffffffffffffffffffffffffffffffffffff1673ffffffffffffffffffffffffffffffffffffffff163373ffffffffffffffffffffffffffffffffffffffff16146102b7576040517f08c379a00000000000000000000000000000000000000000000000000000000081526004016102ae90610cec565b60405180910390fd5b806040013581602001351115610302576040517f08c379a00000000000000000000000000000000000000000000000000000000081526004016102f990610d7e565b60405180910390fd5b6000600460009054906101000a900469ffffffffffffffffffff1669ffffffffffffffffffff16146103875760006103386107a7565b5093505050508160200135811115610385576040517f08c379a000000000000000000000000000000000000000000000000000000000815260040161037c90610e10565b60405180910390fd5b505b600381908060018154018082558091505060019003906000526020600020906004020160009091909190915081816103bf9190611083565b50506004600081819054906101000a900469ffffffffffffffffffff16809291906103e9906110c0565b91906101000a81548169ffffffffffffffffffff021916908369ffffffffffffffffffff160217905550507fe7ddf63c860421e83a9bedde9a44e9769a4e116a96f51ad2ecb8e0506bb4f1e68160000135826020013583604001358460600160208101906104579190610b03565b6040516104679493929190610bf5565b60405180910390a150565b60025481565b6001805461048590611121565b80601f01602080910402602001604051908101604052809291908181526020018280546104b190611121565b80156104fe5780601f106104d3576101008083540402835291602001916104fe565b820191906000526020600020905b8154815290600101906020018083116104e157829003601f168201915b505050505081565b60008054906101000a900473ffffffffffffffffffffffffffffffffffffffff1681565b60008060008060008560038769ffffffffffffffffffff168154811061055357610552611152565b5b90600052602060002090600402016000015460038869ffffffffffffffffffff168154811061058557610584611152565b5b90600052602060002090600402016001015460038969ffffffffffffffffffff16815481106105b7576105b6611152565b5b90600052602060002090600402016002015460038a69ffffffffffffffffffff16815481106105e9576105e8611152565b5b906000526020600020906004020160030160009054906101000a900469ffffffffffffffffffff169450945094509450945091939590929450565b6003818154811061063457600080fd5b90600052602060002090600402016000915090508060000154908060010154908060020154908060030160009054906101000a900469ffffffffffffffffffff16905084565b60008054906101000a900473ffffffffffffffffffffffffffffffffffffffff1673ffffffffffffffffffffffffffffffffffffffff163373ffffffffffffffffffffffffffffffffffffffff1614610708576040517f08c379a00000000000000000000000000000000000000000000000000000000081526004016106ff90610cec565b60405180910390fd5b8060038369ffffffffffffffffffff168154811061072957610728611152565b5b906000526020600020906004020181816107439190611083565b9050507fce681dc19b73a559407cc81dcf28f71444f3d9d1c594f98cc28ced88903aa7998282600001358360200135846040013585606001602081019061078a9190610b03565b60405161079b959493929190610b49565b60405180910390a15050565b6000806000806000806001600460009054906101000a900469ffffffffffffffffffff166107d59190611181565b90508060038269ffffffffffffffffffff16815481106107f8576107f7611152565b5b90600052602060002090600402016000015460038369ffffffffffffffffffff168154811061082a57610829611152565b5b90600052602060002090600402016001015460038469ffffffffffffffffffff168154811061085c5761085b611152565b5b90600052602060002090600402016002015460038569ffffffffffffffffffff168154811061088e5761088d611152565b5b906000526020600020906004020160030160009054906101000a900469ffffffffffffffffffff1695509550955095509550509091929394565b600060ff82169050919050565b6108de816108c8565b82525050565b60006020820190506108f960008301846108d5565b92915050565b600069ffffffffffffffffffff82169050919050565b61091e816108ff565b82525050565b60006020820190506109396000830184610915565b92915050565b600080fd5b600080fd5b60006080828403121561095f5761095e610944565b5b81905092915050565b60006080828403121561097e5761097d61093f565b5b600061098c84828501610949565b91505092915050565b6000819050919050565b6109a881610995565b82525050565b60006020820190506109c3600083018461099f565b92915050565b600081519050919050565b600082825260208201905092915050565b60005b83811015610a035780820151818401526020810190506109e8565b60008484015250505050565b6000601f19601f8301169050919050565b6000610a2b826109c9565b610a3581856109d4565b9350610a458185602086016109e5565b610a4e81610a0f565b840191505092915050565b60006020820190508181036000830152610a738184610a20565b905092915050565b600073ffffffffffffffffffffffffffffffffffffffff82169050919050565b6000610aa682610a7b565b9050919050565b610ab681610a9b565b82525050565b6000602082019050610ad16000830184610aad565b92915050565b610ae0816108ff565b8114610aeb57600080fd5b50565b600081359050610afd81610ad7565b92915050565b600060208284031215610b1957610b1861093f565b5b6000610b2784828501610aee565b91505092915050565b6000819050919050565b610b4381610b30565b82525050565b600060a082019050610b5e6000830188610915565b610b6b6020830187610b3a565b610b78604083018661099f565b610b85606083018561099f565b610b926080830184610915565b9695505050505050565b610ba581610995565b8114610bb057600080fd5b50565b600081359050610bc281610b9c565b92915050565b600060208284031215610bde57610bdd61093f565b5b6000610bec84828501610bb3565b91505092915050565b6000608082019050610c0a6000830187610b3a565b610c17602083018661099f565b610c24604083018561099f565b610c316060830184610915565b95945050505050565b60008060a08385031215610c5157610c5061093f565b5b6000610c5f85828601610aee565b9250506020610c7085828601610949565b9150509250929050565b7f4f6e6c79206f776e65722063616e2063616c6c20746869732066756e6374696f60008201527f6e00000000000000000000000000000000000000000000000000000000000000602082015250565b6000610cd66021836109d4565b9150610ce182610c7a565b604082019050919050565b60006020820190508181036000830152610d0581610cc9565b9050919050565b7f55706461746564206174206d757374206265206c6172676572207468616e207360008201527f7461727465642061740000000000000000000000000000000000000000000000602082015250565b6000610d686029836109d4565b9150610d7382610d0c565b604082019050919050565b60006020820190508181036000830152610d9781610d5b565b9050919050565b7f4e657720646174612063616e6e6f74206265206f6c646572207468616e20707260008201527f6576696f75732064617461000000000000000000000000000000000000000000602082015250565b6000610dfa602b836109d4565b9150610e0582610d9e565b604082019050919050565b60006020820190508181036000830152610e2981610ded565b9050919050565b610e3981610b30565b8114610e4457600080fd5b50565b60008135610e5481610e30565b80915050919050565b60008160001b9050919050565b60007fffffffffffffffffffffffffffffffffffffffffffffffffffffffffffffffff610e9684610e5d565b9350801983169250808416831791505092915050565b6000819050919050565b6000610ed1610ecc610ec784610b30565b610eac565b610b30565b9050919050565b6000819050919050565b610eeb82610eb6565b610efe610ef782610ed8565b8354610e6a565b8255505050565b60008135610f1281610b9c565b80915050919050565b6000610f36610f31610f2c84610995565b610eac565b610995565b9050919050565b6000819050919050565b610f5082610f1b565b610f63610f5c82610f3d565b8354610e6a565b8255505050565b60008135610f7781610ad7565b80915050919050565b600069ffffffffffffffffffff610f9684610e5d565b9350801983169250808416831791505092915050565b6000610fc7610fc2610fbd846108ff565b610eac565b6108ff565b9050919050565b6000819050919050565b610fe182610fac565b610ff4610fed82610fce565b8354610f80565b8255505050565b60008101600083018061100d81610e47565b90506110198184610ee2565b50505060018101602083018061102e81610f05565b905061103a8184610f47565b50505060028101604083018061104f81610f05565b905061105b8184610f47565b50505060038101606083018061107081610f6a565b905061107c8184610fd8565b5050505050565b61108d8282610ffb565b5050565b7f4e487b7100000000000000000000000000000000000000000000000000000000600052601160045260246000fd5b60006110cb826108ff565b915069ffffffffffffffffffff82036110e7576110e6611091565b5b600182019050919050565b7f4e487b7100000000000000000000000000000000000000000000000000000000600052602260045260246000fd5b6000600282049050600182168061113957607f821691505b60208210810361114c5761114b6110f2565b5b50919050565b7f4e487b7100000000000000000000000000000000000000000000000000000000600052603260045260246000fd5b600061118c826108ff565b9150611197836108ff565b9250828203905069ffffffffffffffffffff8111156111b9576111b8611091565b5b9291505056fea264697066735822122012973f60f60e0ddf93152e0d18c9815a0276d09e1b89e13035d3596c0b6e902b64736f6c63430008130033",
  "linkReferences": {},
  "deployedLinkReferences": {}
}