{
  "_format": "hh-sol-artifact-1",
  "contractName": "TestERC20",
  "sourceName": "contracts/TestERC20.sol",
  "abi": [
    {
      "inputs": [
        {
          "internalType": "uint256",
          "name": "_totalSupply",
          "type": "uint256"
        },
        {
          "internalType": "string",
          "name": "_name",
          "type": "string"
        },
        {
          "internalType": "string",
          "name": "_symbol",
          "type": "string"
        },
        {
          "internalType": "uint8",
          "name": "_decimals",
          "type": "uint8"
        }
      ],
      "stateMutability": "nonpayable",
      "type": "constructor"
    },
    {
      "anonymous": false,
      "inputs": [
        {
          "indexed": true,
          "internalType": "address",
          "name": "owner",
          "type": "address"
        },
        {
          "indexed": true,
          "internalType": "address",
          "name": "spender",
          "type": "address"
        },
        {
          "indexed": false,
          "internalType": "uint256",
          "name": "value",
          "type": "uint256"
        }
      ],
      "name": "Approval",
      "type": "event"
    },
    {
      "anonymous": false,
      "inputs": [
        {
          "indexed": true,
          "internalType": "address",
          "name": "from",
          "type": "address"
        },
        {
          "indexed": true,
          "internalType": "address",
          "name": "to",
          "type": "address"
        },
        {
          "indexed": false,
          "internalType": "uint256",
          "name": "value",
          "type": "uint256"
        }
      ],
      "name": "Transfer",
      "type": "event"
    },
    {
      "inputs": [
        {
          "internalType": "address",
          "name": "owner",
          "type": "address"
        },
        {
          "internalType": "address",
          "name": "spender",
          "type": "address"
        }
      ],
      "name": "allowance",
      "outputs": [
        {
          "internalType": "uint256",
          "name": "",
          "type": "uint256"
        }
      ],
      "stateMutability": "view",
      "type": "function"
    },
    {
      "inputs": [
        {
          "internalType": "address",
          "name": "spender",
          "type": "address"
        },
        {
          "internalType": "uint256",
          "name": "amount",
          "type": "uint256"
        }
      ],
      "name": "approve",
      "outputs": [
        {
          "internalType": "bool",
          "name": "",
          "type": "bool"
        }
      ],
      "stateMutability": "nonpayable",
      "type": "function"
    },
    {
      "inputs": [
        {
          "internalType": "address",
          "name": "account",
          "type": "address"
        }
      ],
      "name": "balanceOf",
      "outputs": [
        {
          "internalType": "uint256",
          "name": "",
          "type": "uint256"
        }
      ],
      "stateMutability": "view",
      "type": "function"
    },
    {
      "inputs": [],
      "name": "decimals",
      "outputs": [
        {
          "internalType": "uint8",
          "name": "",
          "type": "uint8"
        }
      ],
      "stateMutability": "view",
      "type": "function"
    },
    {
      "inputs": [
        {
          "internalType": "address",
          "name": "spender",
          "type": "address"
        },
        {
          "internalType": "uint256",
          "name": "subtractedValue",
          "type": "uint256"
        }
      ],
      "name": "decreaseAllowance",
      "outputs": [
        {
          "internalType": "bool",
          "name": "",
          "type": "bool"
        }
      ],
      "stateMutability": "nonpayable",
      "type": "function"
    },
    {
      "inputs": [
        {
          "internalType": "address",
          "name": "spender",
          "type": "address"
        },
        {
          "internalType": "uint256",
          "name": "addedValue",
          "type": "uint256"
        }
      ],
      "name": "increaseAllowance",
      "outputs": [
        {
          "internalType": "bool",
          "name": "",
          "type": "bool"
        }
      ],
      "stateMutability": "nonpayable",
      "type": "function"
    },
    {
      "inputs": [
        {
          "internalType": "address",
          "name": "receiver",
          "type": "address"
        },
        {
          "internalType": "uint256",
          "name": "_amount",
          "type": "uint256"
        }
      ],
      "name": "mintTo",
      "outputs": [],
      "stateMutability": "nonpayable",
      "type": "function"
    },
    {
      "inputs": [],
      "name": "name",
      "outputs": [
        {
          "internalType": "string",
          "name": "",
          "type": "string"
        }
      ],
      "stateMutability": "view",
      "type": "function"
    },
    {
      "inputs": [],
      "name": "symbol",
      "outputs": [
        {
          "internalType": "string",
          "name": "",
          "type": "string"
        }
      ],
      "stateMutability": "view",
      "type": "function"
    },
    {
      "inputs": [],
      "name": "totalSupply",
      "outputs": [
        {
          "internalType": "uint256",
          "name": "",
          "type": "uint256"
        }
      ],
      "stateMutability": "view",
      "type": "function"
    },
    {
      "inputs": [
        {
          "internalType": "address",
          "name": "to",
          "type": "address"
        },
        {
          "internalType": "uint256",
          "name": "amount",
          "type": "uint256"
        }
      ],
      "name": "transfer",
      "outputs": [
        {
          "internalType": "bool",
          "name": "",
          "type": "bool"
        }
      ],
      "stateMutability": "nonpayable",
      "type": "function"
    },
    {
      "inputs": [
        {
          "internalType": "address",
          "name": "from",
          "type": "address"
        },
        {
          "internalType": "address",
          "name": "to",
          "type": "address"
        },
        {
          "internalType": "uint256",
          "name": "amount",
          "type": "uint256"
        }
      ],
      "name": "transferFrom",
      "outputs": [
        {
          "internalType": "bool",
          "name": "",
          "type": "bool"
        }
      ],
      "stateMutability": "nonpayable",
      "type": "function"
    }
  ],
  "bytecode": "0x60806040523480156200001157600080fd5b5060405162001d5038038062001d50833981810160405281019062000037919062000419565b828281600390816200004a91906200070a565b5080600490816200005c91906200070a565b5050506200007133856200009660201b60201c565b80600560006101000a81548160ff021916908360ff160217905550505050506200090c565b600073ffffffffffffffffffffffffffffffffffffffff168273ffffffffffffffffffffffffffffffffffffffff160362000108576040517f08c379a0000000000000000000000000000000000000000000000000000000008152600401620000ff9062000852565b60405180910390fd5b6200011c600083836200020360201b60201c565b8060026000828254620001309190620008a3565b92505081905550806000808473ffffffffffffffffffffffffffffffffffffffff1673ffffffffffffffffffffffffffffffffffffffff168152602001908152602001600020600082825401925050819055508173ffffffffffffffffffffffffffffffffffffffff16600073ffffffffffffffffffffffffffffffffffffffff167fddf252ad1be2c89b69c2b068fc378daa952ba7f163c4a11628f55a4df523b3ef83604051620001e39190620008ef565b60405180910390a3620001ff600083836200020860201b60201c565b5050565b505050565b505050565b6000604051905090565b600080fd5b600080fd5b6000819050919050565b620002368162000221565b81146200024257600080fd5b50565b60008151905062000256816200022b565b92915050565b600080fd5b600080fd5b6000601f19601f8301169050919050565b7f4e487b7100000000000000000000000000000000000000000000000000000000600052604160045260246000fd5b620002b18262000266565b810181811067ffffffffffffffff82111715620002d357620002d262000277565b5b80604052505050565b6000620002e86200020d565b9050620002f68282620002a6565b919050565b600067ffffffffffffffff82111562000319576200031862000277565b5b620003248262000266565b9050602081019050919050565b60005b838110156200035157808201518184015260208101905062000334565b60008484015250505050565b6000620003746200036e84620002fb565b620002dc565b90508281526020810184848401111562000393576200039262000261565b5b620003a084828562000331565b509392505050565b600082601f830112620003c057620003bf6200025c565b5b8151620003d28482602086016200035d565b91505092915050565b600060ff82169050919050565b620003f381620003db565b8114620003ff57600080fd5b50565b6000815190506200041381620003e8565b92915050565b6000806000806080858703121562000436576200043562000217565b5b6000620004468782880162000245565b945050602085015167ffffffffffffffff8111156200046a57620004696200021c565b5b6200047887828801620003a8565b935050604085015167ffffffffffffffff8111156200049c576200049b6200021c565b5b620004aa87828801620003a8565b9250506060620004bd8782880162000402565b91505092959194509250565b600081519050919050565b7f4e487b7100000000000000000000000000000000000000000000000000000000600052602260045260246000fd5b600060028204905060018216806200051c57607f821691505b602082108103620005325762000531620004d4565b5b50919050565b60008190508160005260206000209050919050565b60006020601f8301049050919050565b600082821b905092915050565b6000600883026200059c7fffffffffffffffffffffffffffffffffffffffffffffffffffffffffffffffff826200055d565b620005a886836200055d565b95508019841693508086168417925050509392505050565b6000819050919050565b6000620005eb620005e5620005df8462000221565b620005c0565b62000221565b9050919050565b6000819050919050565b6200060783620005ca565b6200061f6200061682620005f2565b8484546200056a565b825550505050565b600090565b6200063662000627565b62000643818484620005fc565b505050565b5b818110156200066b576200065f6000826200062c565b60018101905062000649565b5050565b601f821115620006ba57620006848162000538565b6200068f846200054d565b810160208510156200069f578190505b620006b7620006ae856200054d565b83018262000648565b50505b505050565b600082821c905092915050565b6000620006df60001984600802620006bf565b1980831691505092915050565b6000620006fa8383620006cc565b9150826002028217905092915050565b6200071582620004c9565b67ffffffffffffffff81111562000731576200073062000277565b5b6200073d825462000503565b6200074a8282856200066f565b600060209050601f8311600181146200078257600084156200076d578287015190505b620007798582620006ec565b865550620007e9565b601f198416620007928662000538565b60005b82811015620007bc5784890151825560018201915060208501945060208101905062000795565b86831015620007dc5784890151620007d8601f891682620006cc565b8355505b6001600288020188555050505b505050505050565b600082825260208201905092915050565b7f45524332303a206d696e7420746f20746865207a65726f206164647265737300600082015250565b60006200083a601f83620007f1565b9150620008478262000802565b602082019050919050565b600060208201905081810360008301526200086d816200082b565b9050919050565b7f4e487b7100000000000000000000000000000000000000000000000000000000600052601160045260246000fd5b6000620008b08262000221565b9150620008bd8362000221565b9250828201905080821115620008d857620008d762000874565b5b92915050565b620008e98162000221565b82525050565b6000602082019050620009066000830184620008de565b92915050565b611434806200091c6000396000f3fe608060405234801561001057600080fd5b50600436106100b45760003560e01c8063449a52f811610071578063449a52f8146101a357806370a08231146101bf57806395d89b41146101ef578063a457c2d71461020d578063a9059cbb1461023d578063dd62ed3e1461026d576100b4565b806306fdde03146100b9578063095ea7b3146100d757806318160ddd1461010757806323b872dd14610125578063313ce567146101555780633950935114610173575b600080fd5b6100c161029d565b6040516100ce9190610ca5565b60405180910390f35b6100f160048036038101906100ec9190610d60565b61032f565b6040516100fe9190610dbb565b60405180910390f35b61010f610352565b60405161011c9190610de5565b60405180910390f35b61013f600480360381019061013a9190610e00565b61035c565b60405161014c9190610dbb565b60405180910390f35b61015d61038b565b60405161016a9190610e6f565b60405180910390f35b61018d60048036038101906101889190610d60565b6103a2565b60405161019a9190610dbb565b60405180910390f35b6101bd60048036038101906101b89190610d60565b6103d9565b005b6101d960048036038101906101d49190610e8a565b6103e7565b6040516101e69190610de5565b60405180910390f35b6101f761042f565b6040516102049190610ca5565b60405180910390f35b61022760048036038101906102229190610d60565b6104c1565b6040516102349190610dbb565b60405180910390f35b61025760048036038101906102529190610d60565b610538565b6040516102649190610dbb565b60405180910390f35b61028760048036038101906102829190610eb7565b61055b565b6040516102949190610de5565b60405180910390f35b6060600380546102ac90610f26565b80601f01602080910402602001604051908101604052809291908181526020018280546102d890610f26565b80156103255780601f106102fa57610100808354040283529160200191610325565b820191906000526020600020905b81548152906001019060200180831161030857829003601f168201915b5050505050905090565b60008061033a6105e2565b90506103478185856105ea565b600191505092915050565b6000600254905090565b6000806103676105e2565b90506103748582856107b3565b61037f85858561083f565b60019150509392505050565b6000600560009054906101000a900460ff16905090565b6000806103ad6105e2565b90506103ce8185856103bf858961055b565b6103c99190610f86565b6105ea565b600191505092915050565b6103e38282610ab5565b5050565b60008060008373ffffffffffffffffffffffffffffffffffffffff1673ffffffffffffffffffffffffffffffffffffffff168152602001908152602001600020549050919050565b60606004805461043e90610f26565b80601f016020809104026020016040519081016040528092919081815260200182805461046a90610f26565b80156104b75780601f1061048c576101008083540402835291602001916104b7565b820191906000526020600020905b81548152906001019060200180831161049a57829003601f168201915b5050505050905090565b6000806104cc6105e2565b905060006104da828661055b565b90508381101561051f576040517f08c379a00000000000000000000000000000000000000000000000000000000081526004016105169061102c565b60405180910390fd5b61052c82868684036105ea565b60019250505092915050565b6000806105436105e2565b905061055081858561083f565b600191505092915050565b6000600160008473ffffffffffffffffffffffffffffffffffffffff1673ffffffffffffffffffffffffffffffffffffffff16815260200190815260200160002060008373ffffffffffffffffffffffffffffffffffffffff1673ffffffffffffffffffffffffffffffffffffffff16815260200190815260200160002054905092915050565b600033905090565b600073ffffffffffffffffffffffffffffffffffffffff168373ffffffffffffffffffffffffffffffffffffffff1603610659576040517f08c379a0000000000000000000000000000000000000000000000000000000008152600401610650906110be565b60405180910390fd5b600073ffffffffffffffffffffffffffffffffffffffff168273ffffffffffffffffffffffffffffffffffffffff16036106c8576040517f08c379a00000000000000000000000000000000000000000000000000000000081526004016106bf90611150565b60405180910390fd5b80600160008573ffffffffffffffffffffffffffffffffffffffff1673ffffffffffffffffffffffffffffffffffffffff16815260200190815260200160002060008473ffffffffffffffffffffffffffffffffffffffff1673ffffffffffffffffffffffffffffffffffffffff168152602001908152602001600020819055508173ffffffffffffffffffffffffffffffffffffffff168373ffffffffffffffffffffffffffffffffffffffff167f8c5be1e5ebec7d5bd14f71427d1e84f3dd0314c0f7b2291e5b200ac8c7c3b925836040516107a69190610de5565b60405180910390a3505050565b60006107bf848461055b565b90507fffffffffffffffffffffffffffffffffffffffffffffffffffffffffffffffff8114610839578181101561082b576040517f08c379a0000000000000000000000000000000000000000000000000000000008152600401610822906111bc565b60405180910390fd5b61083884848484036105ea565b5b50505050565b600073ffffffffffffffffffffffffffffffffffffffff168373ffffffffffffffffffffffffffffffffffffffff16036108ae576040517f08c379a00000000000000000000000000000000000000000000000000000000081526004016108a59061124e565b60405180910390fd5b600073ffffffffffffffffffffffffffffffffffffffff168273ffffffffffffffffffffffffffffffffffffffff160361091d576040517f08c379a0000000000000000000000000000000000000000000000000000000008152600401610914906112e0565b60405180910390fd5b610928838383610c0b565b60008060008573ffffffffffffffffffffffffffffffffffffffff1673ffffffffffffffffffffffffffffffffffffffff168152602001908152602001600020549050818110156109ae576040517f08c379a00000000000000000000000000000000000000000000000000000000081526004016109a590611372565b60405180910390fd5b8181036000808673ffffffffffffffffffffffffffffffffffffffff1673ffffffffffffffffffffffffffffffffffffffff16815260200190815260200160002081905550816000808573ffffffffffffffffffffffffffffffffffffffff1673ffffffffffffffffffffffffffffffffffffffff168152602001908152602001600020600082825401925050819055508273ffffffffffffffffffffffffffffffffffffffff168473ffffffffffffffffffffffffffffffffffffffff167fddf252ad1be2c89b69c2b068fc378daa952ba7f163c4a11628f55a4df523b3ef84604051610a9c9190610de5565b60405180910390a3610aaf848484610c10565b50505050565b600073ffffffffffffffffffffffffffffffffffffffff168273ffffffffffffffffffffffffffffffffffffffff1603610b24576040517f08c379a0000000000000000000000000000000000000000000000000000000008152600401610b1b906113de565b60405180910390fd5b610b3060008383610c0b565b8060026000828254610b429190610f86565b92505081905550806000808473ffffffffffffffffffffffffffffffffffffffff1673ffffffffffffffffffffffffffffffffffffffff168152602001908152602001600020600082825401925050819055508173ffffffffffffffffffffffffffffffffffffffff16600073ffffffffffffffffffffffffffffffffffffffff167fddf252ad1be2c89b69c2b068fc378daa952ba7f163c4a11628f55a4df523b3ef83604051610bf39190610de5565b60405180910390a3610c0760008383610c10565b5050565b505050565b505050565b600081519050919050565b600082825260208201905092915050565b60005b83811015610c4f578082015181840152602081019050610c34565b60008484015250505050565b6000601f19601f8301169050919050565b6000610c7782610c15565b610c818185610c20565b9350610c91818560208601610c31565b610c9a81610c5b565b840191505092915050565b60006020820190508181036000830152610cbf8184610c6c565b905092915050565b600080fd5b600073ffffffffffffffffffffffffffffffffffffffff82169050919050565b6000610cf782610ccc565b9050919050565b610d0781610cec565b8114610d1257600080fd5b50565b600081359050610d2481610cfe565b92915050565b6000819050919050565b610d3d81610d2a565b8114610d4857600080fd5b50565b600081359050610d5a81610d34565b92915050565b60008060408385031215610d7757610d76610cc7565b5b6000610d8585828601610d15565b9250506020610d9685828601610d4b565b9150509250929050565b60008115159050919050565b610db581610da0565b82525050565b6000602082019050610dd06000830184610dac565b92915050565b610ddf81610d2a565b82525050565b6000602082019050610dfa6000830184610dd6565b92915050565b600080600060608486031215610e1957610e18610cc7565b5b6000610e2786828701610d15565b9350506020610e3886828701610d15565b9250506040610e4986828701610d4b565b9150509250925092565b600060ff82169050919050565b610e6981610e53565b82525050565b6000602082019050610e846000830184610e60565b92915050565b600060208284031215610ea057610e9f610cc7565b5b6000610eae84828501610d15565b91505092915050565b60008060408385031215610ece57610ecd610cc7565b5b6000610edc85828601610d15565b9250506020610eed85828601610d15565b9150509250929050565b7f4e487b7100000000000000000000000000000000000000000000000000000000600052602260045260246000fd5b60006002820490506001821680610f3e57607f821691505b602082108103610f5157610f50610ef7565b5b50919050565b7f4e487b7100000000000000000000000000000000000000000000000000000000600052601160045260246000fd5b6000610f9182610d2a565b9150610f9c83610d2a565b9250828201905080821115610fb457610fb3610f57565b5b92915050565b7f45524332303a2064656372656173656420616c6c6f77616e63652062656c6f7760008201527f207a65726f000000000000000000000000000000000000000000000000000000602082015250565b6000611016602583610c20565b915061102182610fba565b604082019050919050565b6000602082019050818103600083015261104581611009565b9050919050565b7f45524332303a20617070726f76652066726f6d20746865207a65726f2061646460008201527f7265737300000000000000000000000000000000000000000000000000000000602082015250565b60006110a8602483610c20565b91506110b38261104c565b604082019050919050565b600060208201905081810360008301526110d78161109b565b9050919050565b7f45524332303a20617070726f766520746f20746865207a65726f20616464726560008201527f7373000000000000000000000000000000000000000000000000000000000000602082015250565b600061113a602283610c20565b9150611145826110de565b604082019050919050565b600060208201905081810360008301526111698161112d565b9050919050565b7f45524332303a20696e73756666696369656e7420616c6c6f77616e6365000000600082015250565b60006111a6601d83610c20565b91506111b182611170565b602082019050919050565b600060208201905081810360008301526111d581611199565b9050919050565b7f45524332303a207472616e736665722066726f6d20746865207a65726f20616460008201527f6472657373000000000000000000000000000000000000000000000000000000602082015250565b6000611238602583610c20565b9150611243826111dc565b604082019050919050565b600060208201905081810360008301526112678161122b565b9050919050565b7f45524332303a207472616e7366657220746f20746865207a65726f206164647260008201527f6573730000000000000000000000000000000000000000000000000000000000602082015250565b60006112ca602383610c20565b91506112d58261126e565b604082019050919050565b600060208201905081810360008301526112f9816112bd565b9050919050565b7f45524332303a207472616e7366657220616d6f756e742065786365656473206260008201527f616c616e63650000000000000000000000000000000000000000000000000000602082015250565b600061135c602683610c20565b915061136782611300565b604082019050919050565b6000602082019050818103600083015261138b8161134f565b9050919050565b7f45524332303a206d696e7420746f20746865207a65726f206164647265737300600082015250565b60006113c8601f83610c20565b91506113d382611392565b602082019050919050565b600060208201905081810360008301526113f7816113bb565b905091905056fea26469706673582212207fcfa88b0bfedf4c0197b353c73e8376be427e7cbf8ae5b56982f8921b3d830b64736f6c63430008130033",
  "linkReferences": {},
  "deployedLinkReferences": {}
}